:040000000CEF00F011
:10000800FACF07F0FBCF08F0E9CF09F060ED04F074
:0400180092EF05F06E
:1006000000496E697420636F6D706C65746520219C
:10061000210A0042524F43484520320A0042524FBD
:1006200043484520330A0042524F43484520340A8C
:100630000042524F43484520350A0042524F43483A
:100640004520360A0042524F43484520370A0042AF
:10065000524F43484520380A0000D388D38AD38CB0
:100660009B8C9FEC05F079EC05F0F28CF28E010E7C
:10067000166E060E176E2FEC05F000D037C015F081
:1006800038C016F0000E186E0A0E176EADEC04F0AE
:10069000050E15181610D8A4F1D7EBEC03F03C505A
:1006A000216E226A55EC05F0300E1526000E16223A
:1006B00021501518E3E122501618D8A4DFD7310EC7
:1006C0003B18D8A408D0310E3D18D8A402D081928E
:1006D00002D0818200D0320E3B18D8A40ED0130E67
:1006E000166E060E176E2FEC05F0310E3D18D8A4CD
:1006F00002D0819002D0818000D0330E3B18D8A464
:100700000ED01D0E166E060E176E2FEC05F0310E74
:100710003D18D8A402D0829A02D0828A00D0340E2A
:100720003B18D8A40ED0270E166E060E176E2FECAF
:1007300005F0310E3D18D8A402D0829802D08288EC
:1007400000D0350E3B18D8A40ED0310E166E060E12
:10075000176E2FEC05F0310E3D18D8A402D082960A
:1007600002D0828600D0360E3B18D8A40ED03B0EA5
:10077000166E060E176E2FEC05F0310E3D18D8A43C
:1007800002D0829402D0828400D0370E3B18D8A4C5
:100790000ED0450E166E060E176E2FEC05F0310EBC
:1007A0003D18D8A402D0829202D0828200D0380EA6
:1007B0003B18D8A463D74F0E166E060E176E2FEC9B
:1007C00005F0310E3D18D8A402D0829057D7828010
:1007D00055D70CEF00F039C015F03AC016F0000EF6
:1007E000186E0A0E176EADEC04F0230E1524D96EA8
:1007F000000E1620DA6E2F0EDF6414D039C015F00B
:100800003AC016F0000E186E0A0E176EADEC04F02A
:10081000230E1524D96E000E1620DA6E390EDF6411
:1008200004D000D0394A3A2A00D039C015F03AC075
:1008300016F0000E186E0A0E176EADEC04F0230EC3
:100840001524D96E000E1620DA6EDF503C6E020EB3
:100850003926000E3A2239C015F03AC016F0000EC3
:10086000186E0A0E176EADEC04F0230E1524D96E27
:10087000000E1620DA6EDF503B6E020E3926000E97
:100880003A2239C015F03AC016F0000E186E0A0E62
:10089000176EADEC04F0230E1524D96E000E162051
:1008A000DA6EDF503D6E020E3926000E3A22000E3F
:1008B000386E000E376E000E3A6E000E396E120062
:1008C0000600EACF0AF0E1CF0BF0E2CF0CF0D9CF6F
:1008D0000DF0DACF0EF0F3CF0FF0F4CF10F0F6CF2B
:1008E00011F0F7CF12F0F8CF13F0F5CF14F09EAA65
:1008F00017D037C001F038C002F0000E046E0A0EA7
:10090000036EEEEC04F0230E0124D96E000E0220DB
:10091000DA6EB0EC05F0DF6E374A382A9E9A00D0C6
:1009200014C0F5FF13C0F8FF12C0F7FF11C0F6FFA7
:1009300010C0F4FF0FC0F3FF0EC0DAFF0DC0D9FFE7
:100940000CC0E2FF0BC0E1FF0AC0EAFF09C0E9FFEB
:1009500008C0FBFF07C0FAFF1100000E1A6E16AEAA
:1009600007D0156C161ED8B0162A010E1A6E00D0CC
:1009700018AE05D0176C181ED8B0182A00D0175022
:100980001810D8B41DD0010E196E05D0D8901736A6
:100990001836192A00D018BE02D0F8D700D0175048
:1009A000155C18501658D8A005D01750155E185071
:1009B000165A00D0D89018321732192EF0D700D01E
:1009C0001A50D8B405D0156C161ED8B0162A00D00F
:1009D00015C015F016C016F000D01200000E066EFD
:1009E00002AE07D0016C021ED8B0022A010E066EBC
:1009F00000D004AE05D0036C041ED8B0042A00D089
:100A000003500410D8B41DD0010E056E05D0D89047
:100A100003360436052A00D004BE02D0F8D700D031
:100A20000350015C04500258D8A005D00350015E69
:100A30000450025A00D0D89004320332052EF0D769
:100A400000D00650D8B405D0016C021ED8B0022ADE
:100A500000D001C001F002C002F000D01200000E70
:100A60001B6E000E1A6E11D01A501624186E1B50F1
:100A70001720196E18C0F6FF19C0F7FF0800F550CF
:100A8000A9EC05F01A4A1B2A00D01A501624186E39
:100A90001B501720196E18C0F6FF19C0F7FF080089
:100AA000F5500009D8A4E0D71200000E186E000E11
:100AB000176E80B003D0174A182A00D080B405D032
:100AC000020E1726000E182200D080B205D0040EA8
:100AD0001726000E182200D080B605D0080E172663
:100AE000000E182200D017C015F018C016F000D064
:100AF0001200C180C182C184C18692809282928498
:100B0000928694909492949494969498949A9390B4
:100B1000939281828180828A828882868284828284
:100B20008280120000EE23F01B0EEE6AE806FDE163
:100B3000000EF86E060EF76E00012DEF03F0AC8A82
:100B4000AC84AB88948E949C330EAF6E9D8AAB8E32
:100B50001200156E00D0ACA2FED715C0ADFF12007A
:0C0B600000D09EAAFED7AE5000D01200BC
:020000040020DA
:08000000FFFFFFFFFFFFFFFF00
:020000040030CA
:0E000000FF021E1EFF8481FF0FC00FE00F40A5
:00000001FF
