:040000000CEF00F011
:10000800FACF04F0FBCF05F0E9CF06F009ED03F0D5
:04001800B3EF03F04F
:1006000000496E697420636F6D706C657465210AB2
:1006100000000600EACF07F0E1CF08F0E2CF09F0D2
:10062000D9CF0AF0DACF0BF0F3CF0CF0F4CF0DF006
:10063000F6CF0EF0F7CF0FF0F8CF10F0F5CF11F0A6
:100640009EAA20D0AECF1BF00A0E1B18D8B40FD034
:10065000C80E1A600CD01A50010D000EF324D96E8A
:10066000010EF420DA6E1BC0DFFF1A2A09D0000E3B
:100670001A6E000E026E010E036E89EC03F000D0BC
:100680009E9A00D011C0F5FF10C0F8FF0FC0F7FF11
:100690000EC0F6FF0DC0F4FF0CC0F3FF0BC0DAFF75
:1006A0000AC0D9FF09C0E2FF08C0E1FF07C0EAFFA6
:1006B00006C0E9FF05C0FBFF04C0FAFF110015D01A
:1006C00013C0F6FF14C0F7FFF86A050EF76403D0F5
:1006D0000800F55005D0F6CFE9FFF7CFEAFFEF505D
:1006E000DDEC03F0134A142A00D013C0F6FF14C047
:1006F000F7FFF86A050EF76403D00800F55005D03F
:10070000F6CFE9FFF7CFEAFFEF500009D8A4D8D71A
:10071000120015D002C0F6FF03C0F7FFF86A050EFD
:10072000F76403D00800F55005D0F6CFE9FFF7CF06
:10073000EAFFEF50E4EC03F0024A032A00D002C0C3
:10074000F6FF03C0F7FFF86A050EF76403D0080050
:10075000F55005D0F6CFE9FFF7CFEAFFEF500009DB
:10076000D8A4D8D7120002EE00F0C80EEE6AE80650
:10077000FDE101EE00F0C80EEE6AE806FDE11B6A3D
:100780001A6A000EF86E0001C6EF03F0D3EC03F016
:10079000010E136E060E146E5FEC03F0F28CF28EF7
:1007A000FFD70CEF00F0AC8AAC84AB88948E949C9D
:1007B000330EAF6E9D8AAB8E1200126E00D0ACA2CB
:1007C000FED712C0ADFF1200016E00D0ACA2FED762
:0607D00001C0ADFF1200A4
:020000040020DA
:08000000FFFFFFFFFFFFFFFF00
:020000040030CA
:0E000000FF031F1EFF8481FF0FC00FE00F40A3
:00000001FF
