:0400000074EF3FF06A
:107ED400016E01C0B8FF120000D09EAAFED7AE50BA
:107EE40000D0120001EE00F0C80EEE6AE806FDE1D3
:107EF4000001AEEF3FF00F0E926EC294C296C2988C
:107F0400C29AC150F00B0B09C16EC2801200000E60
:107F1400946E800E6AEC3FF0000E026E0C0E016E41
:107F24002C0EC8EC3FF01200000E066E000E056E1B
:107F34000CD005500124D96E06500220DA6E6EEC86
:107F44003FF0DF6E054A062A00D00350055C04505A
:107F54000658D8A0EED7120094967DEC3FF089EC39
:107F64003FF000D0000E016E010E026E000E046E92
:107F74000A0E036E96EC3FF001010051D8B402D012
:107F84008B96F0D78B86EED700EF00F0036E000ED1
:107F9400AC6E000EAB6E03A002D0AC8800D003A27E
:107FA40003D0AC8CAB8C00D003A402D0AC8E00D038
:107FB40003A602D0AB8802D0AB8A00D003B8AC844D
:107FC4009E9803AA02D0AB8600D003AC02D09D8A4F
:107FD40001D09D9A9E9A03AE02D09D8801D09D98AF
:107FE40001C0AFFF0250B06EAC8AAB8E949C948EED
:0C7FF400ACB8ACBE02D0948C00D01200DF
:020000040020DA
:08000000FFFFFFFFFFFFFFFF00
:020000040030CA
:0E000000FF081F1EFF8781FF0FC00FE00F409B
:00000001FF
