:040000000CEF00F011
:10000800FACF07F0FBCF08F0E9CF09F00EED00F0CA
:1000180002EF01F00600EACF0AF0E1CF0BF0E2CFE1
:100028000CF0D9CF0DF0DACF0EF0F3CF0FF0F4CFFC
:1000380010F0F6CF11F0F7CF12F0F8CF13F0F5CF9C
:1000480014F09EAA17D026C001F027C002F0000EB7
:10005800046EC80E036E5BEC00F0000E0124D96E2E
:10006800010E0220DA6E27EC01F0DF6E264A272AFD
:100078009E9A00D014C0F5FF13C0F8FF12C0F7FF16
:1000880011C0F6FF10C0F4FF0FC0F3FF0EC0DAFF77
:100098000DC0D9FF0CC0E2FF0BC0E1FF0AC0EAFFA8
:1000A80009C0E9FF08C0FBFF07C0FAFF1100000EF6
:1000B800066E02AE07D0016C021ED8B0022A010EED
:1000C800066E00D004AE05D0036C041ED8B0042A16
:1000D80000D003500410D8B41DD0010E056E05D011
:1000E800D89003360436052A00D004BE02D0F8D7CB
:1000F80000D00350015C04500258D8A005D003502A
:10010800015E0450025A00D0D89004320332052E02
:10011800F0D700D00650D8B405D0016C021ED8B074
:10012800022A00D001C001F002C002F000D0120083
:10013800000E186E000E176E80B003D0174A182AEA
:1001480000D080B205D0020E1726000E182200D06B
:1001580080B405D0040E1726000E182200D080B6F1
:1001680005D0080E1726000E182200D017C015F06B
:1001780018C016F000D01200000E1D6E000E1E6E84
:10018800000E1F6E000E206E07D000F0010E1D2617
:10019800000E1E221F222022D8901534196E163404
:1001A8001A6E17341B6E18341C6E19501D5C1A50C9
:1001B8001E581B501F581C502058D8A0E6D71200B4
:1001C800D388D38AD38C9B8C16EC01F02DEC01F0EC
:1001D800F28CF28E00D09CEC00F01550300F20EC21
:1001E80001F0300E156E750E166E000E176E000EAD
:1001F800186EC0EC00F0EFD70CEF00F002EE00F044
:10020800C80EEE6AE806FDE101EE00F0C80EEE6ADF
:10021800E806FDE12A6A296A286A276A266A00012F
:10022800E4EF00F0AC8AAC84AB88948E949C330ED7
:10023800AF6E9D8AAB8E1200156E00D0ACA2FED7B1
:1002480015C0ADFF120000D09EAAFED7AE5000D058
:0C02580012009280928292849286120022
:020000040020DA
:08000000FFFFFFFFFFFFFFFF00
:020000040030CA
:0E000000FF021E1EFF8481FF0FC00FE00F40A5
:00000001FF
