:040000000CEF00F011
:10000800FACF07F0FBCF08F0E9CF09F06CED00F06C
:1000180090EF01F036C015F037C016F0000E186EDC
:100028000A0E176EB9EC00F0200E1524D96E000EDA
:100038001620DA6EDF503A6E020E3626000E372290
:1000480036C015F037C016F0000E186E0A0E176E7F
:10005800B9EC00F0200E1524D96E000E1620DA6EC9
:10006800DF50386E020E3626000E372236C015F0E5
:1000780037C016F0000E186E0A0E176EB9EC00F0B5
:10008800200E1524D96E000E1620DA6EDF503C6E55
:10009800020E3626000E37224D0E99EC01F03A0E6C
:1000A800166E000E176E5AEC01F0420E99EC01F034
:1000B800380E166E000E176E5AEC01F0560E99ECBB
:1000C80001F03C0E166E000E176E5AEC01F012008D
:1000D8000600EACF0AF0E1CF0BF0E2CF0CF0D9CF5F
:1000E8000DF0DACF0EF0F3CF0FF0F4CF10F0F6CF1B
:1000F80011F0F7CF12F0F8CF13F0F5CF14F09EAA55
:1001080017D034C001F035C002F0000E046E0A0E9C
:10011800036EFAEC00F0200E0124D96E000E0220C6
:10012800DA6EA0EC01F0DF6E344A352A9E9A00D0D0
:1001380014C0F5FF13C0F8FF12C0F7FF11C0F6FF97
:1001480010C0F4FF0FC0F3FF0EC0DAFF0DC0D9FFD7
:100158000CC0E2FF0BC0E1FF0AC0EAFF09C0E9FFDB
:1001680008C0FBFF07C0FAFF1100000E1A6E16AE9A
:1001780007D0156C161ED8B0162A010E1A6E00D0BC
:1001880018AE05D0176C181ED8B0182A00D0175012
:100198001810D8B41DD0010E196E05D0D890173696
:1001A8001836192A00D018BE02D0F8D700D0175038
:1001B800155C18501658D8A005D01750155E185061
:1001C800165A00D0D89018321732192EF0D700D00E
:1001D8001A50D8B405D0156C161ED8B0162A00D0FF
:1001E80015C015F016C016F000D01200000E066EED
:1001F80002AE07D0016C021ED8B0022A010E066EAC
:1002080000D004AE05D0036C041ED8B0042A00D078
:1002180003500410D8B41DD0010E056E05D0D89037
:1002280003360436052A00D004BE02D0F8D700D021
:100238000350015C04500258D8A005D00350015E59
:100248000450025A00D0D89004320332052EF0D759
:1002580000D00650D8B405D0016C021ED8B0022ACE
:1002680000D001C001F002C002F000D01200D38813
:10027800D38AD38C9B8C86EC01F075EC01F0F28C60
:10028800F28E00D034C015F035C016F0000E186E8E
:100298000A0E176EB9EC00F0050E15181610D8A442
:1002A800F1D70EEC00F0EED70CEF00F0000E196E4F
:1002B800000E186E0CD018501624D96E195017203D
:1002C800DA6EDF5099EC01F0184A192A00D018505C
:1002D8001624D96E19501720DA6EDF50D8A4EBD740
:1002E8001200C180C182C184C186928092829284A8
:1002F800928694909492949494969498949A9390C5
:1003080094921200AC8AAC84AB88948E949C330E81
:10031800AF6E9D8AAB8E120000EE20F01E0EEE6AC4
:10032800E806FDE100013BEF01F0156E00D0ACA23C
:10033800FED715C0ADFF120000D09EAAFED7AE5062
:0403480000D01200CF
:020000040020DA
:08000000FFFFFFFFFFFFFFFF00
:020000040030CA
:0E000000FF021E1EFF8481FF0FC00FE00F40A5
:00000001FF
